:020000040800F2
:10000000001000204D5100089D5100089D5100082E
:1000100000000000000000000000000000000000E0
:100020000000000000000000000000009D510008DA
:1000300000000000000000009D510008B1370008DA
:100040009D5100089D5100089D5100089D510008D8
:100050009D5100089D5100089D5100089D510008C8
:100060009D5100089D5100089D5100089D510008B8
:10007000193D00089D5100089D5100089D51000840
:100080009D51000800000000000000009D51000884
:10009000000000009D5100089D5100089D5100087E
:1000A000000000009D5100089D51000865300008C7
:1000B0009D510008000000009D5100080000000054
:1000C0000448054B10B5834203D0044B002B00D0ED
:1000D000984710BD5805002058050020000000007A
:1000E00006480749091A8B10C90FC91810B54910DD
:1000F00003D0044B002B00D0984710BD58050020BA
:10010000580500200000000010B5074C2378002B94
:1001100009D1FFF7D5FF054B002B02D0044800E0C2
:1001200000BF0123237010BD58050020000000000F
:10013000B8510008054B10B5002B03D00449054801
:1001400000E000BFFFF7CCFF10BDC046000000007C
:100150005C050020B8510008B0B586B000AF0400BF
:10016000080011007B600E257B19221C1A800C24CC
:100170003B19021C1A800A23FB180A1C1A807A19E0
:100180003B190021525E00215B5E9A4204DC17237A
:10019000FB1800221A7021E00E23FB181A880C238A
:1001A000FB181B88D31A9AB214257C190A23FB1852
:1001B0001B881900100004F051FD030023807B19F7
:1001C0001B887A689A4205D91723FB187A19128876
:1001D0001A7003E01723FB187A681A701723FB18AC
:1001E0001B781800BD4606B0B0BDB0B586B000AFF4
:1001F0000400080011007B600E257B19221C1A8068
:100200000C243B19021C1A800A23FB180A1C1A80B2
:100210007A193B1912881B889A4204D81723FB18B5
:1002200000221A7021E00E23FA180C23FB18128802
:100230001B88D31A9AB214257C190A23FB181B8831
:100240001900100004F00AFD030023807B191B88AD
:100250007A689A4205D91723FB187A1912881A70FE
:1002600003E01723FB187A681A701723FB181B7812
:100270001800BD4606B0B0BD90B583B000AF786041
:1002800039607B68DB0FDAB23B68DB0FDBB25340CF
:10029000DBB2002B09D07B683968180004F04EFEF1
:1002A0000B1E02D001235C4200E00024396878680C
:1002B00004F05EFD0300E3181800BD4603B090BDD6
:1002C00080B582B000AF78600A00BB1C1A807B68E2
:1002D000BA1C12881A80C046BD4602B080BD90B5D7
:1002E00087B000AF0400080011007B600E23FB18EC
:1002F000221C1A800C23FB18021C1A800B203B18AE
:100300000A1C1A703B181B78002B04D01623FB180C
:1003100000221A8004E01623FB187A6812881A80DB
:100320000E23FB181A881623FB181B88D3189AB2C1
:1003300014217B181A807A180C23FB180020125EF7
:1003400000201B5E9A4204DA7B687A1812881A80B1
:1003500004E07B680C22BA1812881A801423FB1858
:1003600000229B5E1800BD4607B090BD80B582B0EC
:1003700000AF78607B6800221A607B6800225A60B8
:10038000C046BD4602B080BD80B586B000AFF86003
:100390007A603B600A23FB180A1C1A80FB68002263
:1003A0009B5E1A003B681B681B14D31A7B617A6939
:1003B00080231B029A4202DB234B7B6105E07B69B1
:1003C000224A934201DA214B7B610A23FB181B88E6
:1003D0007A695A433B681B68D3187B617B691B149D
:1003E0001AB27B681A803B687A691A60FB6802332C
:1003F00000229B5E1A003B685B681B14D31A7B616A
:100400007A6980231B029A4202DB0F4B7B6105E075
:100410007B690E4A934201DA0C4B7B610A23FB187D
:100420001B887A695A433B685B68D3187B617B6998
:100430001A147B68023312B21A803B687A695A60D8
:10044000C046BD4606B080BDFF7F00000080FFFFB4
:1004500080B582B000AF78600A00BB1C1A807B6850
:10046000BA1C12881A80C046BD4602B080BD90B545
:1004700087B000AF0400080011007B600E23FB185A
:10048000221C1A800C23FB18021C1A800B203B181C
:100490000A1C1A703B181B78002B04D01623FB187B
:1004A00000221A8004E01623FB18BA6A12881A8008
:1004B0000E23FA181623FB1812881B88D3189AB239
:1004C0007B681A807B681B880C22BA1812889A42B3
:1004D00004D97B681A88BB6A1A8004E0BB6A0C22C4
:1004E000BA1812881A80C046BD4607B090BD80B5C4
:1004F00084B000AFB9607A600F217B18021C1A70BB
:100500007B681B787A181278D31A5A1E9341DBB293
:100510001A00BB681A707B687A1812781A70C04685
:10052000BD4604B080BD80B582B000AF78607B6806
:10053000043300211800FFF78BFF7B680233002192
:100540001800FFF785FFC046BD4602B080BDF0B57C
:1005500089B002AF0400080011007B600F257B19F1
:10056000221C1A700C26BB19021C1A800A23FB18C5
:100570000A1C1A803A6B152439197B191B7818004C
:10058000FFF7B5FF7B191B78002B22D03B6B9B79C3
:10059000002B1ED13B1918783B6B043316257C19B0
:1005A000BA1911880093230002000120FFF75FFFB2
:1005B0007B191B88BA1912889A4203D33B6B9B792B
:1005C000002B01D0012300E00023DAB27B681A700F
:1005D0002DE00F23FB181B78002B24D13B6B9B795C
:1005E000002B20D01523FB1818783B6B02331625FF
:1005F0007C190A26BA1911880093230002000120F1
:10060000FFF735FF7B191B88BA1912889A4205D368
:100610003B6B9B79002B01D0012300E00023DAB271
:100620007B681A7003E03B6B9A797B681A707B6871
:100630001A783B6B9A71C046BD4607B0F0BD80B5D5
:1006400082B000AF786039607B683A685A60C04613
:10065000BD4602B080BD80B582B000AF7860396021
:100660007B6800221A607B683A685A60C046BD46C3
:1006700002B080BDB0B584B000AF05000C00100022
:100680001900BB1D2A1C1A803B1D221C1A80BB1C92
:10069000021C1A803B000A1C1A80BB1D00229B5EB4
:1006A0003A1D128853431B11FB60FB68002B0BDAC9
:1006B000BB6A1A68FB6880210906CB1A9A4203DAE2
:1006C00080231B06FB6011E0FB68002B09DDBB6A81
:1006D0001A68FB682649CB1A9A4202DD244BFB605C
:1006E00004E0BB6A1B68FA68D318FB60BB6A5B68EE
:1006F000FA68D318FB60FB681A130A217B181A806A
:100700007A183B000021525E00215B5E9A4204DDB4
:100710007B6A3A0012881A8013E00A23FA18202113
:100720007B180020125E00201B5E9A4204DA7A6A6F
:100730007B181B88138004E07B6A0A22BA1812888F
:100740001A807B6A00229B5E9AB20A23FB181B88E0
:10075000D31A9BB21BB21A00BB1C1B885A43BB6A3C
:100760001A60BB6AFA685A60C046BD4604B0B0BDA4
:10077000FFFFFF7F80B582B000AF78607B68012209
:100780001A71C046BD4602B080BD80B582B000AFD0
:1007900078607B6800225A717B6801221A71C0461A
:1007A000BD4602B080BDB0B58AB000AF04000800FD
:1007B00011007B600E257B19221C1A800C23FB186C
:1007C000021C1A800A203B180A1C1A807B1900227E
:1007D0009B5E3A18128853437B627B6A002B0ADACD
:1007E0007B6A80221206D31A3A6C9A4203DA80237B
:1007F0001B067B620FE07B6A002B08DD7B6A634A85
:10080000D31A3A6C9A4202DD604B7B6203E07A6A4B
:100810003B6CD3187B62BB6C1B79002B02D0BB6C8A
:100820007A681A60BB6C5B79002B02D000233B62B4
:1008300001E07B6A3B62BB6C1B683A6AD318BB6100
:100840000E23FB1800229B5E0C22BA181288534319
:10085000DB123B623A6A80231B029A4202DB4C4B5A
:100860003B6205E03B6A4B4A934201DA494B3B62EB
:10087000BB691B145A003B6AD3185B103B623A6A8F
:1008800080231B029A4202DB414B3B6205E03B6A3C
:10089000404A934201DA3F4B3B623B6A1AB238232B
:1008A000FB18012100201B5E934201DB0023191C71
:1008B000CAB21723FB181A703B6A1BB23C22BA1843
:1008C00001210020125E9A4201DC0023191CCAB2E9
:1008D0001623FB181A701723FB181B78002B05D062
:1008E0007A6C3823FB181B8813800EE01623FB1844
:1008F0001B78002B05D07B6C3C22BA1812881A801A
:1009000003E03B6A1AB27B6C1A807B6A002B03DA25
:1009100001235B427B6205E07B6ADA17D31ADB0FA7
:10092000DBB27B623B6A1BB2002B05DA1E23FB188D
:10093000012252421A8008E03B6A1BB2DA17D31A2E
:10094000DB0FDAB21E23FB181A801E23FB180022CD
:100950009B5E7A6A9A420BD11723FB181B78002BF7
:1009600004D11623FB181B78002B01D0012300E0D3
:100970000023DAB2BB6C5A71BB6C00221A71BB6CDB
:10098000BA691A60C046BD460AB0B0BDFFFFFF7F1E
:10099000FF7F00000080FFFF80B582B000AF78606D
:1009A0007B6801221A71C046BD4602B080BD80B589
:1009B00082B000AF78607B6800225A717B680122A8
:1009C0001A71C046BD4602B080BDB0B588B000AF58
:1009D00005000C0010001900BB1D2A1C1A803B1DCD
:1009E000221C1A80BB1C021C1A803B000A1C1A80A5
:1009F000BB1D00229B5EBA1C12885343FB61FB693E
:100A0000002B0ADAFB6980221206D31ABA6B9A42CB
:100A100003DA80231B06FB610FE0FB69002B08DD76
:100A2000FB69644AD31ABA6B9A4202DD614BFB61DF
:100A300003E0FA69BB6BD318FB613B6C1B79002B9D
:100A400005D03B0000229B5E1A043B6C1A603B6C95
:100A50005B79002B02D00023BB6101E0FB69BB6125
:100A60003B6C1B68BA69D3183B61BB1D00229B5EBF
:100A70003A1D12885343DB12BB61BA6980231B0203
:100A80009A4202DB4C4BBB6105E0BB694B4A934287
:100A900001DA4A4BBB613B691B145A00BB69D3188E
:100AA0005B10BB61BA6980231B029A4202DB424B96
:100AB000BB6105E0BB69414A934201DA3F4BBB6130
:100AC000BB691AB23023FB18012100201B5E934240
:100AD00001DB0023191CCAB20F23FB181A70BB6973
:100AE0001BB23422BA1801210020125E9A4201DCA6
:100AF0000023191CCAB20E23FB181A700F23FB180F
:100B00001B78002B05D0FA6B3023FB181B88138051
:100B10000EE00E23FB181B78002B05D0FB6B342254
:100B2000BA1812881A8003E0BB691AB2FB6B1A80EC
:100B3000FB69002B03DA01235B42FB6105E0FB69E3
:100B4000DA17D31ADB0FDBB2FB61BB691BB2002BD8
:100B500005DA1623FB18012252421A8008E0BB690D
:100B60001BB2DA17D31ADB0FDAB21623FB181A807E
:100B70001623FB1800229B5EFA699A420BD10F23C1
:100B8000FB181B78002B04D10E23FB181B78002BBD
:100B900001D0012300E00023DAB23B6C5A713B6CB8
:100BA00000221A713B6C3A691A60C046BD4608B013
:100BB000B0BDC046FFFFFF7FFF7F00000080FFFF4A
:100BC00080B582B000AF78607B6801229A70C04621
:100BD000BD4602B080BD80B582B000AF78607B6852
:100BE0000022DA707B6801229A70C046BD4602B0CE
:100BF00080BDB0B586B000AF05000C001000190034
:100C0000BB1D2A1C1A803B1D221C1A80BB1C021C07
:100C10001A803B000A1C1A80BB1D00229B5EBA1C76
:100C200012885343FB60FB68002B0ADAFB688022C2
:100C30001206D31A3A6B9A4203DA80231B06FB6032
:100C40000FE0FB68002B08DDFB686E4AD31A3A6B95
:100C50009A4202DD6B4BFB6003E0FA683B6BD318F2
:100C6000FB60BB6B9B78002B03D0BB6B3A001288F8
:100C70001A80BB6BDB78002B04D01623FB180022F4
:100C80001A800BE0FB68002B01DA5F4B00E00023C9
:100C9000FA689B181A141623FB181A80BB6B0022E3
:100CA0009B5E9AB21623FB181B88D3189AB20A23AC
:100CB000FB181A80BB1D00229B5E3A1D128853430D
:100CC000DB123B613A6980231B029A4202DB4F4BE5
:100CD0003B6105E03B694E4A934201DA4C4B3B6174
:100CE0000A23FB1800229B5E5A003B69D3185B1055
:100CF0003B613A6980231B029A4202DB434B3B6112
:100D000005E03B69424A934201DA414B3B613B6952
:100D10001AB22823FB18012100201B5E934201DB3D
:100D20000023191CCAB20923FB181A703B691BB2B5
:100D30002C22BA1801210020125E9A4201DC002305
:100D4000191CCAB20823FB181A700923FB181B7858
:100D5000002B05D07A6B2823FB181B8813800EE02C
:100D60000823FB181B78002B05D07B6B2C22BA18AC
:100D700012881A8003E03B691AB27B6B1A80FB6809
:100D8000002B03DA01235B42FB6005E0FB68DA1706
:100D9000D31ADB0FDBB2FB603B691BB2002B05DA19
:100DA0001623FB18012252421A8008E03B691BB24D
:100DB000DA17D31ADB0FDAB21623FB181A801623C0
:100DC000FB1800229B5EFA689A420BD10923FB189C
:100DD0001B78002B04D10823FB181B78002B01D0B3
:100DE000012300E00023DAB2BB6BDA70BB6B002298
:100DF0009A70BB6B0A22BA1812881A80C046BD4688
:100E000006B0B0BDFFFFFF7FFFFF0000FF7F0000C7
:100E10000080FFFFF0B5C64600B59CB006AF786015
:100E20007B681B68FB627B68DB68BB627B685B6816
:100E30007B627B689B683B627B6A1B799B00DAB2B2
:100E40007B6A5B79DB18DBB2D318D9B27B6A9A79FB
:100E50001F203B188A181A707B6A1B795A1E93410F
:100E6000DBB25AB27B6A5B79591E8B41DBB25BB253
:100E700053405AB27B6A9B79591E8B41DBB25BB2FD
:100E800053405AB2BB6A9A215B5C591E8B41DBB25C
:100E90005BB253405AB2BB6A9B215B5C591E8B41CB
:100EA000DBB25BB253405AB2BB6A9C215B5C591EF9
:100EB0008B41DBB25BB253405AB21E217B181A70D1
:100EC0007B181B78002B00D10DE13123FB18BA6A87
:100ED0008E21525C1A703B181A78D649F123DB0038
:100EE0008A18D3181B785BB2DAB2BB6A8F215B56C3
:100EF000DBB2D31ADAB257217B181A700A00BB187A
:100F00001B785BB2012B04D0BB181B785BB2053396
:100F100004D1BB6A8E220121995403E0BB6A8E2260
:100F2000FF2199541F23FB181A78C249F123DB00D3
:100F30008A18D31800215956BB6A8F229954BB6A6C
:100F40008022995EBB6A56229952BB6A56229B5EEA
:100F50009AB2BB6A82215B5E9BB2D31A9AB23621E7
:100F60007B181A800A00BB1800215B5E002B07DA91
:100F7000BB181B885B429AB25423FB181A8005E009
:100F80005423FB183622BA1812881A80FB6A0422EE
:100F90009B5E5422BA180021525E9A4204DBBB6A5F
:100FA000A922012199540CE0FB6A06229B5E54227F
:100FB000BA180021525E9A4203DCBB6AA9220021C2
:100FC0009954BB6AA922995CBB6AA2229954BB6A54
:100FD0008E229B563122BA18127852B2D31A5A1E58
:100FE0009341DAB21D217B181A707B181B78002BF5
:100FF00009D0BB6AA7229B5C002B04D05423FB18AA
:1010000000221A8044E01D23FB181B78002B06D019
:101010005423FB18BA6A8A21525A1A8038E0BB6AF4
:10102000A2229B5C002B0FD0FB6A9B891A01BB6A32
:1010300056215B5E1900100003F09AFE03001A00AF
:101040005423FB181A8023E0FB6A9B899B009BB208
:101050001801BB6A84229B5E9AB2BB6A86215B5EE2
:101060009BB2D3189AB2BB6A88215B5E9BB2D3183D
:101070009AB2BB6A56215B5E9BB2D3189BB21BB27D
:10108000190003F075FE03001A005423FB181A80A0
:10109000BB6A8E229B569BB25422BA1812885343C5
:1010A0009BB219B2BB6A7A229952BB6A5622995EE8
:1010B000BB6A82229952BB6A8622995EBB6A8422ED
:1010C0009952BB6A8822995EBB6A86229952BB6A92
:1010D0005622995EBB6A88229952BB6A1D22BA18B1
:1010E000A72112785A54FB6A0A21595EBB6A403321
:1010F000180054257C191E23FB181A7803000120C0
:10110000FFF7EDF803002380FB6A0A229B5E7A1941
:101110000021525E9A4204DD3623FB1800221A8019
:1011200005E03623FB18BA6A7A21525A1A80362211
:10113000BB1800215B5E002B07DABB181B885B42E3
:101140009AB23423FB181A8005E03423FB183622A8
:10115000BA1812881A80FB6AD4229B5E3422BA180D
:101160000021525E9A4204DBBB6AA82201219954F5
:101170000CE0FB6AD2229B5E3422BA180021525E38
:101180009A4203DCBB6AA82200219954FB6AFB2225
:101190009B5C002B09D1BB6AA8229B5C002B06D06C
:1011A000BB6AA2229B5C002B01D1012200E000223D
:1011B0001E23FB181A701D23FB18BA6AA321525C68
:1011C0001A701C23FB18BA6AA421525C1A707B6A3D
:1011D00002229B5E1A013223FB181A807B6A0822C6
:1011E0009B5E1B01BB63BB6B134A934204DD52231E
:1011F000FB18124A1A800FE0BB6B114A934204DAC3
:101200005223FB180F4A1A8006E07B6A08229B5E75
:101210001A015223FB181A807B6A0A229B5E1B016B
:10122000BB63BB6B044A93420EDD5023FB18034A99
:101230001A8019E0D05100083F6A0000406A00009F
:10124000C195FFFFC095FFFFBB6BD64A934204DAFE
:101250005023FB18D44A1A8006E07B6A0A229B5E60
:101260001A015023FB181A80FB6AFB229B5C002B9F
:1012700000D097E01E23FB181B78002B54D04A2186
:101280007B185422BA1812881A80BB6A56229B5EB9
:101290007A180020125E9A4204DB7B18BA6A562143
:1012A000525A1A80BB6A8E229B56012B0CD11F23E7
:1012B000FB1819785723FB18BC48F122D2004118BB
:1012C0008A1812781A700FE01F23FB181A78B74992
:1012D000F123DB008A18D3181B785BB2DBB2013331
:1012E000DAB25723FB181A704A243B1900229B5E7E
:1012F0009A03BB6A56215B5E1900100003F038FDAB
:1013000003009BB2BA6A8E21525692B253439BB2EB
:101310001BB21A005723FB181B785BB29B03D31830
:101320009A103B191A8029E0BB6A8E229B56012B2A
:101330000CD11F23FB1819785723FB189B48F12267
:10134000D20041188A1812781A700FE01F23FB1878
:101350001A789649F123DB008A18D3181B785BB200
:10136000DBB20133DAB25723FB181A705723FB188C
:101370001B785BB21A034A23FB181A804A22BB1857
:1013800000215B5E002B02DCBB1800221A804A2180
:101390007B1800229A5E13001B019B1A1A117B18FE
:1013A0001A8022E07B6A0E229B5E1900FB6AF822FB
:1013B0009B5C4B43E13BFF3BFB64FB6C9CB2B42367
:1013C0005A01FB6C11001800FEF756FF03009BB298
:1013D000B422520053439BB21B019BB2E31A9BB24F
:1013E0001BB29A004A23FB181A805723FB18BA6ACB
:1013F0009021525C1A7031217B18FF221A70FB6A0F
:10140000F9229B5C022B02D17B1800221A70BB6A66
:1014100031203A18902112785A5457217A183B18E3
:10142000127852B21B785BB29A422DD07B181B788F
:101430005BB2002B28D1BB6A98229B56002B0BD1A4
:10144000BB6A522200219952BB6A7822002199522C
:10145000BB6A542200219952BB6A9822FF219954F9
:10146000BB6A7C2200219952BB6A7E2200219952DC
:10147000BB6A522200219952BB6A54220021995220
:10148000BB6A7822002199523123FB181B785BB28A
:10149000002B00D0A3E1FB6AFA229B5C002B35D124
:1014A0005223FB1800229B5E414A5343BB635023E7
:1014B000FB1800229B5E3E4A5343FB64BB6B002B30
:1014C00001DA3C4B00E00023BA6B9B18DA13FB6C8B
:1014D000002B01DA384B00E00023F96C5B189B13FA
:1014E0001BB2D318BB63BA6B80231B029A4202DB88
:1014F000304BBB6305E0BB6B304A934201DA2F4BA4
:10150000BB634823FB18BA6B1A808FE0FB6AFA2290
:101510009B5C012B54D15223FB1800229A5E50236E
:10152000FB1800215B5ED31ABB63BA6B80231B02DE
:101530009A4202DB1F4BBB6305E0BB6B1F4A934221
:1015400001DA1E4BBB63BB6B194A5343BB63BB6BD6
:10155000002B01DA174B00E00023BA6B9B18DA135B
:101560004823FB181A805223FB1800229B5E5A4224
:101570005023FB1800215B5ED31ABB63BA6B802338
:101580001B029A4202DB0B4BBB6305E0BB6B0B4AB1
:10159000934201DA094BBB635223FB18BA6B1A80E2
:1015A00044E0C046C195FFFFC095FFFFD051000841
:1015B000E7490000FF7F0000FF3F00000080FFFFC1
:1015C0005223FB1800229B5ED64A5343BB63502331
:1015D000FB1800229B5ED34A5343FB64BB6B002B7A
:1015E00001DAD14B00E00023BA6B9B18DB135A429F
:1015F000FB6C002B01DACD4B00E00023F96C5B188B
:101600009B131BB2D31ABB63BA6B80231B029A4293
:1016100002DBC54BBB6305E0BB6BC54A934201DAF5
:10162000C34BBB634823FB18BA6B1A801B257C197C
:101630004A23FB180020185EB42380220021FEF705
:101640008BFD030023707B191A78BA4B5200D15ED0
:10165000BB6A7C2299527B191B78B64AB4335B0073
:10166000D31802330021595EBB6A7E229952572358
:10167000FB18BA6A9821525C1A7031217B18FF223C
:101680001A707B6A1B78002B02D07B1800221A701C
:10169000BB6A31203A18982112785A5457217A1887
:1016A0003B18127852B21B785BB29A4210D07B186A
:1016B0001B785BB2002B0BD1BB6A522200219952DE
:1016C000BB6A782200219952BB6A542200219952A8
:1016D0003123FB181B785BB2002B00D07FE057232F
:1016E000FB181B785BB2002B04D0BB6A38331800A0
:1016F000FEF73CFE4823FB1800229B5EBA6A7E215F
:10170000525E53439B131BB218005223FB18002256
:101710009B5EBA6A7C21525E53439B131BB2C31A71
:10172000BB63BA6B80231B029A4202DB7E4BBB6316
:1017300005E0BB6B7E4A934201DA7D4BBB63BB6B1A
:101740001AB21023FB181A805223FB1800229B5E4A
:10175000BA6A7E21525E53439B131BB21800482382
:10176000FB1800229B5EBA6A7C21525E53439B1396
:101770001BB2C318BB63BA6B80231B029A4202DB05
:10178000694BBB6305E0BB6B694A934201DA684B66
:10179000BB63BB6B1AB210203B185A80FB6AEC2269
:1017A000995ABB6A52331A00BB6A38333818FEF7AD
:1017B000EBFDBB6A52229B5E002B0ADABB6A522207
:1017C0009B5E9BB25B429BB219B2BB6A7822995274
:1017D00005E0BB6A5222995EBB6A78229952BB6AC5
:1017E000A3229B5C002B00D1F7E2FB6AFD229B5CED
:1017F000002B00D187E0BB6A9D229B5C1A0004236A
:10180000134004D01523FB1801221A7031E0BB6A83
:101810008C229B5E002B09DABB6A8C229B5E9BB2FA
:101820005B429AB25023FB181A8005E05023FB1844
:10183000BA6A8C21525A1A807B6A1B78002B13D00B
:10184000FB6ADC229B5E3422BA180021525E9A4267
:101850000ADAFB6ADE229B5E5022BA180021525E31
:101860009A4201DD012300E00023DAB21523FB18C0
:101870001A701F23FB181B78072B01D1022300E0ED
:1018800000231F22BA18127851424A41D2B29B1843
:10189000D9B215257B191B789B00DAB21B26BB1920
:1018A0008A181A70BB191B785A1E9341DBB21C00B0
:1018B000FB6A198AFB6ADA89BB6AA1331800BB6A22
:1018C0002E33009303002000FEF741FEBB6AA122E5
:1018D000985CBB6A2C331A007B191900FEF707FECF
:1018E0007B191B78002B04D03B6ABA1912789A71C5
:1018F00004E0BB6A9D229A5C3B6A9A713B6A9979C3
:10190000BB6A9D229954BB6AA1229B5C002B07D124
:101910007B6A1B78002B03D07B6A5B78002B0BD192
:1019200001230AE0E7490000FF7F0000FF3F0000BD
:101930000080FFFFD05100080023DAB21523FB1806
:101940001A707B6A5B78022B04D0FB6AFC229B5CDA
:10195000002B01D0012200E000221723FB181A708F
:101960007B6A5B78032B06D1FB6AFC229B5C002B15
:1019700001D1012200E000221623FB181A70BB6A75
:101980009E229B5C002B0CD1BB6A9E2201219954A4
:10199000BB6A9F2202219954BB6A99220021995463
:1019A000E6E0BB6A9F229B5C012B00D09BE01523E5
:1019B000FB181B78002B0CD0BB6AA0220021995485
:1019C000BB6A9F2202219954BB6A99220021995433
:1019D000CEE0BB6AA0229B5C012B02D0022B25D05B
:1019E00049E0BB6A9922022199541723FB181B78FE
:1019F000002B00D0B7E0BB6AA02200219954162327
:101A0000FB181B78002B08D0BB6AA0220221995436
:101A1000BB6A992203219954A5E0BB6AA022032145
:101A20009954BB6A9922012199549CE0BB6A99227E
:101A3000032199541623FB181B78002B00D094E047
:101A4000BB6AA022002199541723FB181B78002B96
:101A500008D0BB6AA02201219954BB6A99220221B5
:101A6000995482E0BB6AA02203219954BB6A99224F
:101A70000121995479E0BB6A9922012199541623D6
:101A8000FB181B78002B05D11723FB181B78002BA4
:101A900000D16CE0BB6AA022002199541623FB18E8
:101AA0001B78002B08D0BB6AA02202219954BB6A84
:101AB0009922032199545AE01723FB181B78002B15
:101AC00008D0BB6AA02201219954BB6A9922022145
:101AD00099544CE0BB6AA02203219954BB6A992215
:101AE0000121995443E0BB6A99220021995415239E
:101AF000FB181B78002B3BD17B6A5B78012B09D04C
:101B00001723FB181B78002B04D11623FB181B7816
:101B1000002B2DD0BB6A9F22012199541623FB185C
:101B20001B78002B08D0BB6AA02202219954BB6A03
:101B30009922032199541BE01723FB181B78002BD3
:101B400008D0BB6AA02201219954BB6A99220221C4
:101B500099540DE0BB6AA02203219954BB6A9922D3
:101B60000121995404E0C04602E0C04600E0C046AE
:101B7000FB6AF9229B5C022B42D108217B180022D0
:101B80001A80FB6A12229A5E7B185A80FB6ADA225C
:101B90009A5E7B189A80FB6ACE229A5E7B18DA8066
:101BA00032217B1800229A5EFA239B019A4204DDBF
:101BB0007B18FA2292011A8009E032217B18002258
:101BC0009B5EBF4A934202DA7B18BD4A1A807B6A49
:101BD0005B781A000823FB185200D35E5B017D215D
:101BE000180003F0C5F803009BB21A003223FB185B
:101BF00000215B5E53431A135223FB181A801FE027
:101C00003223FB1800229A5EFA239B019A4205DDDB
:101C10005223FB18FA2292011A8011E03223FB189A
:101C200000229B5EA64A934204DA5223FB18A44A80
:101C30001A8005E05223FB183222BA1812881A8043
:101C40005723FB18BA6A9721525C1A70BB6A992213
:101C50009B5C5A1E9341DAB231217B181A70BB6A21
:101C600008007A18972112785A543B181B785BB2F7
:101C7000002B03D0012B00D18FE095E03123FA181F
:101C80005723FB18127852B21B785BB29A4206D0E7
:101C9000BB6AA62201219954BB6A00229A64BB6ADE
:101CA0008C229B5E1B03BB63BA6B80231B05134016
:101CB00004D0BB6BF8221206134302E0BB6B5B013E
:101CC0005B09FB64BB6AA6229A5C15203B181A705C
:101CD000BB6AA622002199543B181B78002B02D026
:101CE000FB6C3B6402E0BB6A9B6C3B643B6C5B42FD
:101CF000BB63BA6B80231B05134004D0BB6BF82277
:101D00001206134302E0BB6B5B015B09FB63FB6ADA
:101D10001B68FA6B9A4203DDFB6A1B68FB6317E0E2
:101D2000FB6A1B685B42BB63BA6B80231B051340D5
:101D300004D0BB6BF8221206134302E0BB6B5B01BD
:101D40005B09BB63FA6BBB6B9A4201DABB6BFB634B
:101D5000FA6B3B6CD318BB63BA6B80231B05134033
:101D600004D0BB6BF8221206134302E0BB6B5B018D
:101D70005B093B641523FB181B78002B03D0BB6A5F
:101D8000FA6C9A6402E0BB6A3A6C9A643B6C1B136F
:101D900019B2BB6A7422995206E0BB6A5222BA1881
:101DA000742112885A52C046BB6A74229B5E002B73
:101DB0000BDABB6A74229B5E9BB25B429BB219B288
:101DC000BB6A7622995200F069FDBB6A7422995E63
:101DD000BB6A7622995200F061FDBB6AA4229B5C2B
:101DE000002B00D1A6E2FB6AFE229B5C002B00D1F7
:101DF000C9E032217B1800229B5E002B05DA7B189C
:101E00001B885B429AB27B181A80FB6AE0229B5EB9
:101E100032217A180020125E9A4205DD7B18FA6A98
:101E2000E021525A1A800DE0FB6AE2229B5E3221C9
:101E30007A180020125E9A4204DA7B18FA6AE221CC
:101E4000525A1A803223FB181A88FB6AE2215B5E21
:101E50009BB2D31A9BB21BB2D803FB6AE0229B5EF3
:101E60009AB2FB6AE2215B5E9BB2D31A9BB21BB2B1
:101E7000190002F07DFF03001A004623FB181A80A8
:101E8000FB6AD6229B5E3422BA180021525E9A4227
:101E900006DD5223FB18FA6AD621525A1A8017E03F
:101EA000FB6AD8229B5E3422BA180021525E9A4205
:101EB00008DA5223FB18FA6AD821525A1A8007E02E
:101EC00080C1FFFF5223FB183422BA1812881A80EF
:101ED0005223FB181A88FB6AD8215B5E9BB2D31A87
:101EE0009BB21BB2D803FB6AD6229B5E9AB2FB6AF6
:101EF000D8215B5E9BB2D31A9BB21BB2190002F0D1
:101F000037FF03001A0018217B181A8046203A1860
:101F10007B1812881B889A420AD23A187B181288BA
:101F20001B889A4210D83B187A1812881A800BE046
:101F300018217A1846203B1812881B889A4203D22F
:101F40003B187A1812881A80FB6AF9229B5C022BD4
:101F500006D15023FB18FA6AD021525A1A8005E0A4
:101F60005023FB18FA6ACC21525A1A805023FB18CE
:101F700000229B5E4622BA1812885343DB1319B223
:101F8000BB6A722299525723FB18BA6A9521525C98
:101F90001A7031217B18FF221A70FB6AF9229B5CB0
:101FA000022B02D17B1800221A70BB6A31203A182A
:101FB000952112785A5457217A183B18127852B248
:101FC0001B785BB29A4208D07B181B785BB2002B5F
:101FD00003D1BB6A9622FF2199543123FB181B7849
:101FE0005BB2002B01D000F059FCFB6A1221595E54
:101FF000BB6A5C229952BB6A5C229B5E9BB25B42CD
:102000009BB219B2BB6A5E229952BB6A5A229B5E8E
:10201000002B09DABB6A5A229B5E9BB25B429AB2E2
:102020005023FB181A8005E05023FB18BA6A5A2186
:10203000525A1A80FB6A7022995EFB6A72229B5E7A
:102040009AB2FB6A70201B5E9BB2D31A9AB25023DD
:10205000FB180020185E2D23FEF77EF80300FA6AB5
:1020600008335B00D31804330021595EBB6A602239
:102070009952BB6A60229B5E9BB25B429BB219B2D3
:10208000BB6A62229952FB6ACE22995EBB6A6422C5
:102090009952BB6A72229B5E1B04BB63BA6B80239E
:1020A0001B069A4204D1BB6A64229B5E013308D0AE
:1020B000BB6A64229B5E1900B86B02F059FE0300F4
:1020C00000E0C94BBB63BB6B002B02DA0023BB6390
:1020D00006E0BA6B80235B029A4201DBC34BBB6311
:1020E000BB6B98B2C24A31230021FEF77EF8030091
:1020F000C04AE22189008C4663445B00D318023356
:102100001B881900BB6A64229B5E4B431B1419B2E7
:10211000BB6A66229952BB6A66229B5E9BB25B4297
:102120009BB219B2BB6A682299525723FB18BA6A4C
:102130009621525C1A703123FB18FF221A70BB6A79
:1021400099229B5C032B0FD013DC012B02D0022BB6
:1021500005D00EE03123FB1800221A7009E031236C
:10216000FB1801221A7004E03123FB1802221A70B6
:10217000C046BB6A31203A18962112785A543B184F
:102180001B785BB2022B00D197E000DDC7E0002B8B
:1021900002D0012B5AD0C2E03123FA185723FB1882
:1021A000127852B21B785BB29A420FD0BB6A2433CA
:1021B000FA22920411001800FEF74DFABB6A1C3394
:1021C000FA22920411001800FEF745FABB6A662253
:1021D0009B5E9AB2BB6A78215B5E9BB2D31A9BB2BC
:1021E00018B2FB6AF222995AFB6AE4229C5ABB6A33
:1021F00076229D5EBB6A7033BA6A243202920193E2
:10220000002300932B002200FEF734FAFB6ADA2247
:102210009B5E9AB23423FB181B88D31A9BB218B268
:10222000FB6AF622995AFB6AE4229C5ABB6A762220
:102230009D5EBB6A6E33BA6A1C3202920193002320
:1022400000932B002200FEF715FA68E0BB6A5222C9
:102250009A5EBB6A66215B5E9A4206DD5023FB18DC
:10226000BA6A6621525A1A8014E0BB6A52229A5EF8
:10227000BB6A68215B5E9A4206DA5023FB18BA6A91
:102280006821525A1A8005E05023FB18BA6A52217D
:10229000525A1A805023FB181A88BB6A52215B5E7F
:1022A0009BB2D31A9BB21BB21900FB6AF2229B5A53
:1022B0004B431A00BB6A5A6431E03123FA185723A2
:1022C000FB18127852B21B785BB29A4207D0BB6AF5
:1022D0001433E122920411001800FEF7BCF9FB6AE6
:1022E000DA229B5E9AB23423FB181B88D31A9BB266
:1022F00018B2FB6AF622995AFB6AE4229C5ABB6A1E
:1023000060229D5EBB6A6C33BA6A143202920193FA
:10231000002300932B002200FEF7ACF9C046BB6AF5
:1023200064229B5E9BB25B429BB219B2BB6A6A227B
:102330009952B3E2BB6AA5229B5C002B00D1ADE2AF
:102340005723FB18BA6A9221525C1A7031217B180C
:10235000FF221A70FB6AF9229B5C022B02D17B18C8
:1023600000221A70BB6A31203A18922112785A540E
:1023700057217A183B18127852B21B785BB29A42F6
:102380000CD07B181B785BB2002B07D1BB6A932261
:10239000FF219954BB6A9422FF21995431203B18A4
:1023A0001B785BB2002B00D078E25723FB18BA6A87
:1023B0009321525C1A70BB6A99229B5C032B08D054
:1023C0000CDC012B18D0022B08D13B1801221A700B
:1023D00013E03123FB1802221A700EE03123FB18A0
:1023E00003221A7009E0C046FFFFFF7FFFFF0000D5
:1023F0001F050000D0510008C046BB6A31203A18C2
:10240000932112785A543B181B785BB2032B00D1EE
:10241000BBE100DDC0E1022B00D120E100DDBBE12A
:10242000002B03D0012B00D169E0B5E1BB6A762215
:102430009A5EBB6A70215B5E9A4206DA3223FB1811
:10244000BA6A7621525A1A8005E03223FB18BA6A1A
:102450007021525A1A80BB6A6E229B5E32217A1812
:102460000020125E9A4204DB7B18BA6A6E21525A2F
:102470001A80BB6A74229B5E002B05DA5023FB187E
:10248000012252421A8009E0BB6A74229B5EDA176D
:10249000D31ADB0FDAB25023FB181A803223FB1851
:1024A0001B885022BA18128853439AB252217B18C3
:1024B0001A80BB6A60229B5E7A180021525E9A42A3
:1024C00006DDBB6A6022995EBB6A5822995263E1BD
:1024D000BB6A62229B5E5222BA180021525E9A4267
:1024E00006DABB6A6222995EBB6A5822995253E1AE
:1024F000BB6A5222BA18582112885A524CE1312331
:10250000FA185723FB18127852B21B785BB29A4222
:1025100004D0BB6A04331800FEF749FAFB6A0822AC
:102520009B5E1A0152217B181A80FB6AFC229B5C7D
:10253000002B40D07B1800229B5E002B3BD07B18E9
:1025400000229B5E002B1ADDBB6A60229A5E10207F
:102550003B181A80BB6A74229A5EBB6A62215B5E7A
:102560009A4205DDBB6A74229A5E3B185A802DE0C0
:10257000BB6A62229A5E1023FB185A8026E0BB6A6F
:1025800060229A5EBB6A74215B5E9A4206DABB6A7D
:1025900060229A5E1023FB181A8005E0BB6A742241
:1025A0009A5E1023FB181A80BB6A62229A5E10237F
:1025B000FB185A800AE0BB6A60229A5E10217B18E1
:1025C0001A80BB6A62229A5E7B185A80FB6AFC22E0
:1025D0009B5C002B05D15223FB18BA6A7421525A16
:1025E0001A805223FB1800229A5E3623FB18002122
:1025F0005B5ED31ABB63BA6B80231B029A4202DB79
:10260000B34BBB6305E0BB6BB24A934201DAB14BFB
:10261000BB63BB6B1DB2FB6AEA229E5AFB6AF422C3
:102620009B5A9C46BB6A8C229B5E984610217B1865
:1026300000229A5E7B180221595EBB6A5B6CB86A05
:102640005830BC6A043404940390029301910092C0
:102650004346624631002800FEF7B7F99CE031237B
:10266000FA185723FB18127852B21B785BB29A42C1
:1026700003D0BB6A1800FEF7AEFABB6A6C229B5E01
:102680009BB25B429AB25223FB181A80BB6A742237
:102690009A5EBB6A66215B5E9A4206DD5023FB1898
:1026A000BA6A6621525A1A8014E0BB6A74229A5E92
:1026B000BB6A68215B5E9A4206DA5023FB18BA6A4D
:1026C0006821525A1A8005E05023FB18BA6A742117
:1026D000525A1A805023FB1800229B5EBA6A52217C
:1026E000525E9B1ABB63BA6B80231B029A4202DBC9
:1026F000774BBB6305E0BB6B764A934201DA754BBF
:10270000BB63BB6A60229A5EBB6A6C215B5E9A42C5
:1027100006DA5023FB18BA6A6021525A1A8005E083
:102720005023FB18BA6A6C21525A1A80BB6A622283
:102730009B5E52217A180020125E9A4204DC7B18BC
:10274000BA6A6221525A1A80BB6B18B2FB6AE8223D
:10275000995AFB6AF0229C5ABB6A8C229D5EBB6A26
:102760005833BA6A04920393002302935223FB184E
:1027700000229B5E01935023FB1800229B5E009376
:102780002B002200FEF735FA06E0BB6A7422995E40
:10279000BB6A58229952C0465723FB18BA6A942143
:1027A000525C1A7031217B18FF221A701E23FB180D
:1027B0001B78002B02D07B1800221A70BB6A3120D4
:1027C0003A18942112785A543B181B785BB2002BAC
:1027D00064D15723FB181B785BB2002B04D0BB6A73
:1027E0000C331800FDF7D1FFBB6A72229B5E9BB2CF
:1027F0005B429AB252217B181A80BB6A64229B5EAC
:102800007A180020125E9A4205DD7B18BA6A6421AC
:10281000525A1A800DE0BB6A6A229B5E52217A18D6
:102820000020125E9A4204DA7B18BA6A6A21525A70
:102830001A805223FB1800229B5EBA6A5421525E12
:102840009B1ABB63BA6B80231B029A4202DB204BAC
:10285000BB6305E0BB6B1F4A934201DA1D4BBB63B0
:10286000BB6B1CB2FB6AE6229D5AFB6AEE229E5AA3
:10287000BB6A5C229B5EBA6A5E21525EB96A5A31BB
:10288000B86A0C30049003910021029101920093E8
:102890000023320029002000FDF785FF5723FB1895
:1028A000BA6A9121525C1A7031203B18FF221A70CB
:1028B000FB6AF9229B5C022B0ED15223FB18BA6AE9
:1028C0005821525A1A803B1800221A700AE0C0465A
:1028D000FF7F00000080FFFF5223FB18BA6A7421BB
:1028E000525A1A80BB6A31203A18912112785A54F0
:1028F00057217A183B18127852B21B785BB29A4271
:1029000010D07B181B785BB2002B0BD1BB6A4C221A
:1029100000219952BB6A4E2200219952BB6A502273
:10292000002199523123FB181B785BB2002B00D099
:1029300031E1BB6A5A229B5E1900BB6A7E229B5E14
:102940004B439B131BB21900BB6A58229B5E1800B5
:10295000BB6A7C229B5E43439B131BB2CB1ABB63B7
:10296000BA6B80231B029A4202DBB94BBB6305E0C2
:10297000BB6BB84A934201DAB64BBB63BB6A5A22BF
:102980009B5E1900BB6A7C229B5E4B439B131BB270
:102990001900BB6A58229B5E1800BB6A7E229B5EB0
:1029A00043439B131BB2CB18FB64FA6C80231B02BE
:1029B0009A4202DBA64BFB6405E0FB6CA54A9342FE
:1029C00001DAA44BFB64FB6CA34A5343FB64FB6C2E
:1029D000002B01DAA14B00E00023FA6C9B189B133B
:1029E000BA6B12B292B2D20BD2B291B2BA6B92B2AD
:1029F0008A1892B212B2521012B29B1AFB64FA6C8D
:102A000080231B029A4202DB914BFB6405E0FB6CC6
:102A1000904A934201DA8F4BFB64BB6B1BB25B4263
:102A2000FA6C12B29B1A3B643A6C80231B029A42E6
:102A300002DB874B3B6405E03B6C864A934201DA3C
:102A4000844B3B6432217B18BA6B1A80BB6B1AB281
:102A5000FB6C1BB29A4202DB7B18FA6C1A803B6C4F
:102A60001BB232217A180020125E9A4202DB7B18D8
:102A70003A6C1A8050217B18BA6B1A80BB6B1AB261
:102A8000FB6C1BB29A4202DC7B18FA6C1A803B6C1E
:102A90001BB250217A180020125E9A4202DC7B1889
:102AA0003A6C1A803223FB1800229A5E5023FB18DE
:102AB00000215B5ED318FB63FA6B80231B029A42F2
:102AC00002DB634BFB6305E0FB6B624A934201DA76
:102AD000604BFB63FB6B5A1048217B181A80BB6B61
:102AE0001BB21A007B1800215B5ED31ABB63BA6B62
:102AF00080231B029A4202DB554BBB6305E0BB6B94
:102B0000544A934201DA534BBB63BB6B544A534361
:102B10009B1319B2BB6A4C229952FB6C1BB21A0070
:102B20004823FB1800215B5ED31ABB63BA6B80237A
:102B30001B029A4202DB464BBB6305E0BB6B454A76
:102B4000934201DA434BBB63BB6B454A53439B1330
:102B500019B2BB6A4E2299523B6C1BB21A00482331
:102B6000FB1800215B5ED31ABB63BA6B80231B0288
:102B70009A4202DB364BBB6305E0BB6B354A93429E
:102B800001DA344BBB63BB6B354A53439B1319B219
:102B9000BB6A502299521E23FB181B78002B17D0BA
:102BA000FB6AF9229B5C022B12D13223FB18BA6A12
:102BB0004C21525A1A805023FB18BA6A4E21525A9D
:102BC0001A804823FB18BA6A5021525A1A80FBE037
:102BD0001E23FB181B78002B00D18FE0FB6AF92223
:102BE0009B5C012B00D089E0FB6AFE229B5C002BE2
:102BF00038D0BB6A72229B5E9BB2BA6A8E21525653
:102C000092B253439BB21BB29B009AB24A23FB1869
:102C10001B88D3189AB232243B191A803B19002220
:102C20009B5EB422D20111001800FDF725FB0300C2
:102C30009BB2B422520053439BB21BB29B0119B208
:102C40003B191A888BB2D31A9AB23B191A800FE03B
:102C5000FF7F00000080FFFF6D370000FF3F000096
:102C6000E74900003223FB184A22BA1812881A805A
:102C70001F257C193226BB190020185EB423802240
:102C80000021FDF769FA0300237052243B1900224A
:102C90009B5E28003A18127881496932FF3252004F
:102CA0008A1804320021525E53439A13BB191A80CA
:102CB0003B1900229A5E3B181B7879498725AD00A5
:102CC000AC4663445B00CB18063300215B5E534384
:102CD0009A135023FB181A803B1900229A5E3B1866
:102CE0001B786F49B5208000844663445B005B5EBF
:102CF00053439A134823FB181A8065E01F23FB18DF
:102D00001A786749F123DB008A18D3181B785BB265
:102D1000052B04DD5723FB1805221A701CE01F2326
:102D2000FB181A785E49F123DB008A18D3181B7848
:102D30005BB2002B04DA5723FB1800221A700BE059
:102D40001F23FB1819785723FB185548F122D2008E
:102D500041188A1812781A705723FB1800229A56C5
:102D600013005B009B18FB644D4A4E49FB6CD31863
:102D70005B181B785BB29BB252203A1812885343FF
:102D80009AB23223FB181A80FB6C0133444A45493E
:102D9000D3185B181B785BB29BB23A181288534366
:102DA0009AB25023FB181A80FB6C02333C4A3D490F
:102DB000D3185B181B785BB29BB23A181288534346
:102DC0009AB24823FB181A803223FB1800229B5E1C
:102DD0001B111AB23B6A1A805023FB1800229B5E1B
:102DE0001B111AB23B6A5A807B6A1979BB6A9A2214
:102DF00099547B6A5979BB6A9B2299547B6A997969
:102E0000BB6A9C229954BB6A5422BA18802112884A
:102E10005A52BB6A3422BA188A2112885A52BB6AA3
:102E2000A522995CBB6AA3229954BB6A1D22BA18D9
:102E3000A42112785A54BB6A1C22BA18A521127810
:102E40005A54BB6A5222BA188C2112885A5248230B
:102E5000FB1800229B5E1B111AB23B6A9A80362334
:102E6000FB1800229B5E1B111AB23B6A1A814A238F
:102E7000FB1800229B5E9B111AB23B6A5A81BB6A07
:102E800052229A5E3B6A9A81BB6A54229A5E3B6ADE
:102E9000DA81C046BD4616B080BCB846F0BDC0461B
:102EA000D05100087607000080B584B000AF78608C
:102EB0007B681B68FB607B68DB68BB60BB6890223B
:102EC000FF219954BB689822FF219954BB6897222F
:102ED000FF219954BB689522FF219954BB68962223
:102EE000FF219954BB689222FF219954BB68932219
:102EF000FF219954BB689422FF219954BB68912209
:102F0000FF219954FB680A21595EBB6880229952BF
:102F1000BB68A32201219954FB680A21595EBB6852
:102F200056229952BB6840331A00FB680A215B5E47
:102F300019001000FDF7C4F9BB682E331800FDF727
:102F4000F2FABB68A62201219954BB682433FA2205
:102F5000920411001800FDF772FBBB681C33FA22C3
:102F6000920411001800FDF76AFBBB681433E122DC
:102F7000920411001800FDF762FBBB685C22E1219E
:102F800089019952BB685E2216499952BB6860223A
:102F9000E12189019952BB68622212499952BB68AA
:102FA000642211499952BB686A2210499952BB6840
:102FB00066220D499952BB6868220C499952BB6838
:102FC00004331800FDF7E8FCBB681800FDF7F8FDB6
:102FD000BB680C331800FDF7CDFBC046BD4604B0FE
:102FE00080BDC046C0C7FFFFE02E000020D1FFFF1C
:102FF00080B500AF174B12221A70174B174A1A6090
:10300000174BDA68164B01218A43DA60C046144B2D
:103010009B6808221340FAD00F4B1B681B78DAB26A
:103020000F4B1A600B4B1B785BB2DBB2013BDBB280
:103030005AB2084B1A70084B1B685A1C064B1A6090
:10304000074B1A69064B01210A431A61C046BD4667
:1030500080BDC0469C050020980500207C0500200E
:103060000038014080B582B000AF534BDB680222CC
:10307000134000D172E0504B5A694F4B02210A4372
:103080005A614D4B5A68FB1D1A704C4B1B78002B34
:103090000BD1FB1D1B78CD2B00D089E0474B1B7853
:1030A0000133DAB2454B1A7082E0444B1B78012B96
:1030B00014D1FB1D1B78AB2B0CD1404B1B7801337B
:1030C000DAB23E4B1A703E4A3E4B1A603E4B3F4AC4
:1030D0001A806DE0394B00221A7069E0374B1B787B
:1030E000072B65D8374B1B68FA1D12781A70354BC1
:1030F0001B685A1C334B1A60304B1B78072B26D1A8
:103100002E4B00221A70304B1B881AB22E4B022114
:103110005B5E53401AB22C4B04215B5E53401AB2E3
:103120003B1D1A80284BDB883A1D12889A423FD1FA
:10313000274A254B1000190008231A0001F070FFE0
:10314000244B00221A70244B00221A8030E01B4BC3
:103150001B780133DAB2194B1A7029E0164BDB6881
:103160000122134024D0144B5A69134B01210A4306
:103170005A611A4B1B785BB2DBB2013BDBB25AB22D
:10318000164B1A70154B1B785BB2002B05DC0A4BF3
:103190001A69094B01218A431A61114B1B681B787C
:1031A000DAB2054B1A600E4B1B685A1C0C4B1A60A6
:1031B000C046BD4602B080BD00380140E805002091
:1031C000A2050020EC050020A0050020CDABFFFFEC
:1031D000600700205E070020240100209C050020DD
:1031E0009805002080B500AF642000F0F9FA174B75
:1031F00008221A61642000F0F3FA9023DB05802294
:1032000052011A61642000F0EBFA104B04221A619B
:10321000642000F0E5FA9023DB05802212021A6197
:10322000642000F0DDFA094B08225A619023DB0587
:10323000802252015A61054B04225A619023DB051A
:10324000802212025A61C046BD4680BD000C004873
:1032500080B584B000AF0023FB600A23FB18002276
:103260001A8001F021F8CB4B5A69CA4B01218A43DD
:103270005A6100F07FFA00F03BFB00F009FC00F01F
:1032800011FD01F0ABF800F0BFFAC34B9A68C24BD6
:1032900004210A439A60C14B04221A6101F0F0F83C
:1032A00001F010F901F02CFBBD4B1B899BB21B04F4
:1032B0007B60BB4B1B899AB20823FB181A80B94B61
:1032C00008221A6102E00A2000F08AFAB34B9B68D8
:1032D00020221340F7D19023DB05802252011A618E
:1032E000B14B1A69B04B02210A431A61AF4B1A68FD
:1032F000FB68D31A502B00D849E101F0E3FA01F042
:10330000C6FBAB4B1B78002B1BD1AA4B9B79002B28
:1033100017D1A94B02229B5EDA179B1853409BB230
:10332000312B0ED8062001F051FB042001F04EFB9A
:10333000642000F055FAA14B00221A609C4B012238
:103340001A709D4B0220185E9D4B1B881BB29D4A34
:10335000190001F03BFC9B4B00229B5E1B111BB232
:103360001800964B98491A0001F0DCFB934B1B6840
:103370001A140A217B181A807B1800229A5E934B3C
:103380001A60874B1B899BB218003B1D90491A009D
:1033900001F0C8FB7B681A1408217B181A807B187F
:1033A00000229B5E8B4A9A181300DB009B181B01BE
:1033B0009B185B006421180001F0DAFC03009BB24B
:1033C000F0339BB21AB2844B1A80844B00229B5E6E
:1033D0001A0013009B019B1A9B018149180001F000
:1033E000C7FC03001AB27F4B1A807F4B1B68012277
:1033F000134056D16C4B9B680422134051D17B4B38
:103400007B4A1A806C4B02229A5E784B5A80794B29
:1034100000229A5E754B9A80664B08229A5E734B27
:10342000DA80754B00229A5E704B1A816D4B002238
:103430009A5E6E4B5A81684B00229A5E6B4B9A8162
:103440006E4B00229B5E9AB2684BDA81674B1B88F9
:103450001AB2664B02215B5E53401AB2634B0421E1
:103460005B5E53401AB2614B06215B5E53401AB259
:103470005E4B08215B5E53401AB25C4B0A215B5ED7
:1034800053401AB2594B0C215B5E53401AB2574B52
:10349000DB891BB253401BB29AB2544B1A82FFF71E
:1034A000A7FD3E4B9B682022134007D0C0463B4BF4
:1034B0009B6820221340FAD101F00EFB474B0022FB
:1034C0009B5E4F4A934207DC4E4B00229B5E132BC0
:1034D00002DC01F001FB38E0364B9B79002B08D071
:1034E000334B00221A7001221821012001F02AFA20
:1034F0002BE0454B1B78002B05D00122182103201F
:1035000001F020FA21E0354B00229B5E3F4A9342B6
:1035100005DC06220A21002001F014FA15E00A2336
:10352000FB1800229B5E32330ADA394B00229B5E85
:10353000002B05DA01220521002001F003FA04E046
:1035400000220021002001F0FDF9324B1B685A1CBB
:10355000304B1A600A23FB1800229B5EDA179B1877
:1035600053409BB2322B02D92A4B00221A60294BBE
:103570001B68294A934201D901F0AEFA0B4B1B6834
:10358000FB60194B1B685A1C174B1A60AEE6C0460D
:10359000ACE6C04600100240002401400004004890
:1035A00000060020000C00480038014050060020B2
:1035B000560600204407002014010020900500203A
:1035C000000100208E05002099190000F40500205C
:1035D0008F02000014FBFFFF7A0500200401002089
:1035E0001604000078050020740500207C050020EA
:1035F000CDABFFFF5E0600206006002062060020C3
:103600006903000056070020580700208A030000C5
:1036100054070020940500208038010080B582B056
:1036200000AF0200FB1D1A70FB1D1B787F2B09D811
:10363000FB1D1B781A001F231A40044B01219140E7
:103640000A001A60C046BD4602B080BD00E100E03D
:1036500090B583B000AF02003960FB1D1A70FB1DEE
:103660001B787F2B28D82F4AFB1D1B785BB29B0849
:10367000C0339B009B58FA1D1278110003220A40A8
:10368000D200FF2191400A00D2431A4011003B684A
:103690009B01FF221A40FB1D1B78180003230340E7
:1036A000DB009A401F48FB1D1B785BB29B080A4356
:1036B000C0339B001A5031E01B4AFB1D1B781900D8
:1036C0000F230B40083B9B0806339B00D3180433A1
:1036D0001B68FA1D1278110003220A40D200FF2154
:1036E00091400A00D2431A4011003B689B01FF221F
:1036F0001A40FB1D1B78180003230340DB009A408F
:103700000948FB1D1B781C000F232340083B9B0826
:103710000A4306339B00C31804331A60C046BD46F3
:1037200003B090BD00E100E000ED00E080B582B0A4
:1037300000AF78607B685A1E80235B049A4201D3F5
:10374000012310E00A4B7A68013A5A6001235B4278
:1037500003211800FFF77CFF054B00229A60044B01
:1037600007221A6000231800BD4602B080BDC04683
:1037700010E000E080B500AF0B4B00221A600B4B4D
:103780001B68FA229100180001F068FA0300180083
:10379000FFF7CCFF01235B4200211800FFF758FF21
:1037A000C046BD4680BDC046FC050020100100207B
:1037B00080B500AF084B1B68002B04D0064B1B687C
:1037C0005A1E054B1A60054B1B685A1C034B1A60A6
:1037D000C046BD4680BDC046F8050020FC0500205F
:1037E00080B582B000AF7860064B7A681A60C04638
:1037F000044B1B68002BFBD1C046C046BD4602B03F
:1038000080BDC046F805002080B582B000AF324BC5
:103810009A69314B8021C9010A439A612E4B5A693A
:103820002D4B8021C9020A435A612C4B1A6A2B4B3B
:103830002B490A401A62294B1A68284B28490A402A
:103840001A60264B1A68254B902109050A431A6015
:10385000224B1A6A214B23490A401A621F4B1A6AEB
:103860001E4BC02189020A431A621C4B1A681B4B6B
:103870001C490A401A60194B1A68184B8021C9026A
:103880000A431A60184B00229A61174B3022DA6102
:10389000154B9A69144B19210A439A61134B1B6803
:1038A000E1225102180001F0D9F903001A00BB1DF2
:1038B0001A80BB1D1B881B099AB20B4B1A62BB1DD9
:1038C0001A88094B0F210A405A621B20FFF7A6FEF7
:1038D000C046BD4602B080BD001002400004004852
:1038E000FFFFFFF0FFFFF0FF003801401001002054
:1038F00080B500AF5D4B5A695C4BF02149030A4328
:103900005A619023DB055A689023DB0512011209E6
:103910005A609023DB055A689023DB058021490516
:103920000A435A609023DB05802212025A619023D9
:10393000DB055A689023DB054D490A405A60902305
:10394000DB055A689023DB05802149020A435A604F
:103950009023DB05802252015A61464B1A68454B81
:1039600045490A401A60434B1A68424B802149007E
:103970000A431A603F4B04225A613E4B1A683D4B82
:103980003E490A401A603B4B1A683A4B8021490174
:103990000A431A60374B08225A61394B5A68384B30
:1039A00033490A405A60364B5A68354B80214902E8
:1039B0000A435A60324B802252015A61304B1A68D6
:1039C0002F4B2D490A401A602D4B1A682C4B802131
:1039D00049000A431A602A4B04225A61284B1A688C
:1039E000274B28490A401A60254B1A68244B80212E
:1039F000C9030A431A60224B5A68214BF0218A43BB
:103A00005A601F4B5A681E4B10210A435A601C4BC8
:103A1000802292005A611C4B5A681B4B12011209FA
:103A20005A60194B5A68184B8021C9050A435A60DD
:103A3000154B5A68144B15490A405A60124B5A6884
:103A4000114B8021C9040A435A600F4B5A680E4B30
:103A50000E490A405A600C4B5A680B4B8021C9042E
:103A60000A435A60C046BD4680BDC04600100240B1
:103A7000FFFFF0FF000C0048FFF0FFFFFF0FFFFF0C
:103A800000040048FFFF0FFF00080048FFFFFFF0A1
:103A900080B500AF794B9A69784B802109010A43C0
:103AA0009A61764B5A69754BC021C9020A435A6123
:103AB0009023DB055A6A9023DB050F218A435A6263
:103AC0009023DB055A6A9023DB0502210A435A62E0
:103AD0009023DB055A689023DB050F218A435A6047
:103AE0009023DB055A689023DB0509210A435A60BD
:103AF0009023DB055A6A9023DB05F0218A435A6242
:103B00009023DB055A6A9023DB0520210A435A6281
:103B10009023DB055A689023DB05F0218A435A6025
:103B20009023DB055A689023DB0590210A435A60F5
:103B30009023DB055A6A9023DB0551490A405A62FB
:103B40009023DB055A6A9023DB05802189000A4314
:103B50005A629023DB055A689023DB0548490A40E6
:103B60005A609023DB055A689023DB0590210901F8
:103B70000A435A60434B5A6A424B43490A405A62CD
:103B8000404B5A6A3F4B802189030A435A623D4B9E
:103B90005A683C4B3C490A405A603A4B5A68394B88
:103BA000902109040A435A60364B5A6A354B37490B
:103BB0000A405A62334B5A6A324B802189040A43C5
:103BC0005A62304B5A682F4B30490A405A602D4B8D
:103BD0005A682C4B902109050A435A60294B5A6AAE
:103BE000284B120112095A62264B5A6A254B802132
:103BF00089050A435A62234B5A68224B1201120963
:103C00005A60204B5A681F4B902109060A435A609C
:103C10001F4B00229A601E4B20221A601C4B002270
:103C20009A621B4B1B4ADA62194B01221A63184B2A
:103C300020225A60164B184A9A61154B6022DA61AD
:103C4000134B164A5A64124B154A1A62104B5A6C9F
:103C50000F4B802109020A435A640D4B5A680C4BE2
:103C6000A82189010A435A60094B1A68084B0121AF
:103C70000A431A60C046BD4680BDC04600100240DF
:103C8000FFF0FFFF00040048FFFF0FFFFFFFFFF002
:103C9000002C0140B80B0000606000001E0C00000A
:103CA0005505000080B500AF154B9A69144B802173
:103CB00089000A439A61124B5A69114BC021C9020B
:103CC0000A435A619023DB0500221A600D4B1A68E3
:103CD0000C4BFF218A431A600B4B0C4A5A600A4B6B
:103CE0000B4A9A60084B0B4ADA6000210C20FFF760
:103CF000AFFC0C20FFF792FCC046BD4680BDC0461D
:103D00000010024000040048002401400D0400009F
:103D100001020200B342000090B585B000AFB84B7D
:103D20005A69B74B01210A435A61B64B80225201AE
:103D30001A61B34B9B699AB2B14BDB699BB2D31A40
:103D40009BB21B051B0D9AB2AF4B5A80AC4B9B6AC2
:103D50009AB2AB4BDB6A9BB2D31A9BB21B051B0D0D
:103D60009AB2A94B9A80A64B5B6B9BB21B051B0DAD
:103D70009AB2A54B1A80A24BDB6B9BB21B051B0DA5
:103D80009AB2A14BDA809E4B1B6D9BB21B051B0D9B
:103D90009AB29D4B1A819D4B1B78002B06D09B4BF2
:103DA0001B78013BDAB2994B1A7058E2984B00220B
:103DB0009B5E002B4ADD944B5B889BB21A00954BAF
:103DC0001B68D218934B1A608F4B9B889BB21A00CA
:103DD000914B1B68D218904B1A608B4B1B889BB27F
:103DE0001A008E4B1B68D2188C4B1A60884B00222D
:103DF0009B5E9BB2013B9BB21AB2854B1A80844BEF
:103E000000229B5E002B00D026E2824B1B68002B19
:103E100002DA834A944663449B121AB2814B1A8099
:103E20007D4B1B68002B02DA7D4A944663449B124B
:103E30001AB27D4B1A80794B1B68002B02DA784A44
:103E4000944663449B121AB2784B1A80784B1B68D5
:103E5000FA229100180000F087FF0B1E0ED16A4B6A
:103E6000DB889BB21800734B73491A0000F05AFEAE
:103E7000704B1B681B141AB2704B1A80624B5B8824
:103E80009AB2684B00215B5E9BB2D31A9BB21AB206
:103E90006B4B1A805C4B9B889AB2634B00215B5E34
:103EA0009BB2D31A9BB21AB2664B1A80564B1B8830
:103EB0009AB25E4B00215B5E9BB2D31A9BB21AB2E0
:103EC000614B1A80604B00229B5EDA179B185340AF
:103ED0009BB25E4A934203D85D4B1B78002B06D100
:103EE0005C4B5A6C5B4B5C490A405A6406E0594B88
:103EF0005A6C584B802109020A435A644C4B1B6888
:103F00005A1C4B4B1A60554B1B78002B4CD0484B1E
:103F10001B685349180000F0A1FE03001A00514B22
:103F20001B7801331900100000F01EFF0B1E3BD15F
:103F30004D4B1B78002B13D14B4B01221A704B4B6E
:103F40001B780133DAB2494B1A70484B1B781A00C0
:103F5000474B1B7802339A4202DD444B01221A7010
:103F6000334B1A683D4B1B781900100000F0FCFE23
:103F70000B1E25D13D4B1A783D4B1B789A4203D935
:103F80003B4B1B78002B1BD11E4BDA6880239B0018
:103F9000134004D01B4B802292005A6110E0194B51
:103FA000802292001A610BE02F4B1B78002B08D067
:103FB000144B802292005A612B4B00221A7000E0B1
:103FC000C0462C4BF9229B5C022B04D12A4B962233
:103FD00052001A8002E0284B00221A80274B1B78DF
:103FE000002B00D03AE1254B01221A70184B1B78A8
:103FF000002B47D0224B9B79002B43D1012342E079
:104000000024014000040048000600200C010020AC
:104010000E01002064060020680600206C060020C7
:10402000FF030000700600207206002074060020C6
:1040300050060020080100208F020000040100202B
:104040005E06002060060020620600205203000089
:1040500056060020002C0140FF7FFFFF4C06002089
:10406000881300004D06002054060020550600204D
:104070004E06002000000020F005002076060020FB
:10408000440700200023DAB2764B1A70764B9A6808
:1040900080231B0213405A425341DAB20F217B188E
:1040A0001A70714B9A688023DB0113405A425341C6
:1040B000DAB20E203B181A706B4B9A6880239B0172
:1040C00013405A425341DAB20D243B191A70654B22
:1040D0001A78664B1A70664B1A78644B5A70654BA7
:1040E0001B681AB2614B5A80604B7A1812781A71A9
:1040F0005E4B3A1812785A715C4B3A1912789A71E1
:104100005D4B00229A5E594B1A815C4B00229A5EED
:10411000564B5A815A4B00229A5E544B9A81594B06
:104120001B681800FCF776FE574B00229B5EBB60B5
:10413000554B02229B5E7B60534B04229B5E3B608F
:10414000BB68524A9A18524B00215B5E1900514BD2
:104150005B1A9A4208DB4E4B00229B5E9BB24D4A93
:10416000D31A9BB21A0015E0BB684B4A94466344CD
:10417000474A0021525E934207DBBB689BB2464A26
:10418000944663449BB21A0004E0414B00229B5EBC
:104190009BB21A00414B5A637B683C4A9A183C4BCD
:1041A00000215B5E19003B4B5B1A9A4208DB384BDF
:1041B00000229B5E9BB2374AD31A9BB21A0015E0CD
:1041C0007B68354A94466344314A0021525E9342EB
:1041D00007DB7B689BB2304A944663449BB21A006B
:1041E00004E02B4B00229B5E9BB21A002B4B9A6380
:1041F0003B68264A9A18264B00215B5E1900254B26
:104200005B1A9A4208DB224B00229B5E9BB2214A3A
:10421000D31A9BB21A0015E03B681F4A94466344C8
:104220001B4A0021525E934207DB3B689BB21A4A4D
:10423000944663449BB21A0004E0154B00229B5E37
:104240009BB21A00154BDA63154B00221A70154BFE
:10425000802252015A6102E0C04600E0C046BD46DD
:1042600005B090BD57060020000800483407002024
:1042700023010020F40500205E06002060060020D7
:10428000620600206059000844070020DB0500009A
:10429000F0050020B80B0000DC050000002C0140F8
:1042A000760600200004004880B500AF164B1A685F
:1042B000154B01210A431A60134B5A68124B1349DC
:1042C0000A405A60104B1A680F4B11490A401A6095
:1042D0000D4B1A680C4B0F490A401A600A4B5A687A
:1042E000094B0D490A405A60074B1A68064B0B49A7
:1042F0000A401A60044B9F2212049A6000F010F8E2
:10430000C046BD4680BDC046001002400CC0FFF84C
:10431000FFFFF6FEFFFFFBFFFFFF3CFFFFFF8F00ED
:1043200080B582B000AF284B1A68274B01210A43A1
:104330001A60C046244B1B6802221340FAD0234B5C
:10434000234A1A60234B1A68224B10210A431A6031
:10435000204B1A681F4B07218A431A601B4B1B68AE
:10436000013B1D49180000F079FC03007B60194BEC
:104370001968184B7A680A431A60134A124B52683C
:104380005A60114A104B52685A600F4B1A680E4B14
:10439000802149030A431A600B4B5A680A4B0321D8
:1043A0008A435A60084B5A68074B02210A435A60F5
:1043B000C046054B5B680C221340082BF9D1C04660
:1043C000C046BD4602B080BD001002401001002072
:1043D00000A24A040020024000366E0180B500AF02
:1043E000214BFB22002199541F4BFA2201219954A1
:1043F0001D4BF922022199541B4BFD220121995496
:10440000194BCE2219499952174BDA22FA21890108
:104410009952154BFE2200219954134BD022FA21B8
:1044200009019952104BCC22C821490099520E4BD8
:10443000E022FA21890199520B4BE2220B49995251
:104440000B4B094A1A600A4B0A4ADA60084B0A4ABF
:104450005A60074B094A9A60054B1800FEF724FD85
:10446000C046BD4680BDC04600000020E02E0000D2
:10447000780600208806002034070020440700202A
:1044800080B500AF0B4BFE229B5C002B07D00A4B84
:10449000FA2292001A80094B094A1A8006E0064B5C
:1044A000FA2292001A80054B054A1A80C046BD4682
:1044B00080BDC046000000205A0700205C07002095
:1044C00018FCFFFF80B500AF0D4B5B79032B10D1BB
:1044D0000B4B0620185E0A4B0821595E084B0A2236
:1044E0009B5E1A0000F00EF80300DAB2044B1A715A
:1044F00003E0034B5A79024B1A71C046BD4680BD9A
:1045000014010020B0B584B000AF04000800110011
:10451000BB1D221C1A803B1D021C1A80BB1C0A1CDE
:104520001A800023FB600A257B19C8221A80BB1D54
:1045300000229A5E7B1900215B5E1900100000F0DA
:1045400017FC03001C00BB1C00229A5E7B19002193
:104550005B5E1900100000F00BFC03009C4228D0A9
:104560003B1D00229A5E7B1900215B5E1900100042
:1045700000F0FEFB03001C00BB1C00229A5E7B19AE
:1045800000215B5E1900100000F0F2FB03009C426A
:104590000FD0BA1DBB1C0021525E00215B5E9A4207
:1045A00007DC3A1DBB1C0021525E00215B5E9A4273
:1045B00002DD0023FB601EE0BB1D00229A5E0A257F
:1045C0007B1900215B5E1900100000F0D1FB030095
:1045D0001C003B1D00229A5E7B1900215B5E1900C6
:1045E000100000F0C5FB03009C4202D10123FB60D8
:1045F00001E00223FB60FB681800BD4604B0B0BDBB
:1046000090B583B000AF786008001100BB1C021C9D
:104610001A803B000A1C1A807B681B79012B02D090
:10462000022B42D013E17B6800229B5E1A007B685C
:1046300006215B5ED31A3A000021525E5A437B6822
:104640000A215B5E19007B6806201B5ECB1A1900ED
:10465000100000F08DFB03001A003B0000215B5EA0
:104660009A421CDC7B6800229B5E1A007B68062154
:104670005B5ED31A3A000021525E5A437B680A21DE
:104680005B5E19007B6806201B5ECB1A19001000C8
:1046900000F06EFB031E00DA00231BB202E03B00B9
:1046A00000229B5E7A685380D5E07B6800229B5E87
:1046B0001A007B6808215B5E19007B680C201B5E7A
:1046C000CB1A9A4211DD7B6800229B5E1A007B6840
:1046D00008215B5E19007B680C201B5ECB189A4298
:1046E00003DA7B6800225A80B5E07B6800229A5E7C
:1046F0007B6808215B5E9A4255DD7B6800229B5EE9
:104700001A007B6808215B5E19007B680C201B5E29
:10471000CB18D31A3A000021525E5A437B680A2113
:104720005B5E19007B6808201B5E18007B680C2408
:104730001B5FC318CB1A1900100000F019FB03000F
:104740001A003B0000215B5E9A4226DC7B68002257
:104750009B5E1A007B6808215B5E19007B680C2059
:104760001B5ECB18D31A3A000021525E5A437B6875
:104770000A215B5E19007B6808201B5E18007B68BD
:104780000C241B5FC318CB1A1900100000F0F0FABC
:10479000031E00DA00231BB202E03B0000229B5EF6
:1047A0007A68538057E07B6800229B5E1A007B6822
:1047B00008215B5E19007B680C201B5ECB1AD31AA4
:1047C000BA1C0021525E5A437B6806215B5E1900C9
:1047D0007B6808201B5E18007B680C241B5FC31AD3
:1047E000CB1A1900100000F0C3FA031E2BDC7B6803
:1047F00000229B5E1A007B6808215B5E19007B68C3
:104800000C201B5ECB1AD31ABA1C0021525E5A43ED
:104810007B6806215B5E19007B6808201B5E180020
:104820007B680C241B5FC31ACB1A1900100000F020
:104830009FFA03001A00BB1C00215B5E9A4200DA5B
:104840001A0012B200E000227B685A8003E07B6805
:1048500000225A80C046C046BD4603B090BD80B518
:1048600000AF124B1B885A1C91B2104A11809F2B2B
:1048700005D90F4B01221A700C4BA0221A800C4B49
:104880001A780C4B1A700B4B1B78002B06D00A4B76
:1048900000221A70094B00225A8003E0084B1A7854
:1048A000054B1A70C046BD4680BDC046240100209D
:1048B0005E0700205807002023010020140100207B
:1048C0002201002080B500AF094B04229A5E094BFB
:1048D0001A80094B0021595E084B00229A5E054B55
:1048E0001800FFF78DFEFFF7BAFFC046BD4680BD3A
:1048F00060070020140100205C0700205A070020F8
:1049000080B582B000AF0D4B00221A7008237B6087
:1049100009E07B68DAB20A4B1A706420FEF760FF88
:104920007B68013B7B607B68022BF2DC044B00223E
:104930001A70C046BD4602B080BDC0464E0600207B
:104940004C06002090B583B000AF040008001100B1
:10495000FB1D221C1A70BB1D021C1A707B1D0A1C39
:104960001A70084BFA1D12781A70074BBA1D12788C
:104970001A70064B7A1D12781A70C046BD4603B0F5
:1049800090BDC0464E0600204C0600204D0600207B
:1049900080B582B000AF0200FB1D1A70094B0022E7
:1049A0001A70094BFA1D12781A70FA235B0018006E
:1049B000FEF716FF044B00221A70C046BD4602B037
:1049C00080BDC0464E0600204C06002080B582B057
:1049D00000AF0200FB1D1A70084B00221A70084B32
:1049E000FA1D12781A706420FEF7FAFE044B0022BA
:1049F0001A70C046BD4602B080BDC0464E060020BB
:104A00004C06002090B585B000AF0200FB1D1A7067
:104A1000BB1D0A1C1A70BB1D1B787F2B19D80F23D6
:104A2000FA18FB1D1B78DB1813700CE00F243B19E0
:104A30001B780333DBB21800FFF7C8FF3B193A19A4
:104A40001278023A1A700F23FB181B78012BEDD84D
:104A500019E00E23FB1802221A700CE00E243B19F9
:104A60001B780333DBB21800FFF7B0FF3B193A198C
:104A7000127802321A700E23FB181A78FB1D1B786D
:104A80005B009A42EADDC046BD4605B090BD80B5E8
:104A900000AF0E4B00221A800C4B00229B5E9AB294
:104AA0000B4B08215B5E9BB2D31A9BB21AB2074B29
:104AB0001A80064B00229B5EDA179B1853409BB26C
:104AC0001AB2044B1A80C046BD4680BD5407002070
:104AD000440700205607002080B582B000AF0D4B80
:104AE00000221A700C4B00221A7000237B6009E030
:104AF0007B68DAB2094B1A706420FEF771FE7B689E
:104B000001337B607B68072BF2DD054B04225A6181
:104B1000FEE7C0464E0600204D0600204C06002051
:104B200000040048F0B589B000AF7861FA600A204F
:104B300008268319DB190A1C1A807B691A01FB6895
:104B40001B681B13D31A1C00DB171D008319DB190C
:104B50001B889BB23B6000237B603A687B68200027
:104B6000290000F0F1F902000B00190710090143B8
:104B7000B9611B11FB61FB69002B16DCFB69002B83
:104B800004D1BA6980231B069A420ED2BA69FB6926
:104B9000591C05DB591C0AD1802109068A4206D21C
:104BA0008022120601235B4201E0074A0023BA611A
:104BB000FB61BA69FB681B68D218FB681A60C046C3
:104BC000BD4609B0F0BDC046FFFFFF7F90B585B080
:104BD00000AF3A60BB1D021C1A803B1D0A1C1A80E4
:104BE000BB1D1B881B019AB23B6800215B5E9BB218
:104BF000D31A9AB20E217B181A807A183B1D002016
:104C0000125E00201B5E9A4204DD7B183A1D12885A
:104C10001A8013E03B1D1B885B429AB20C217B1863
:104C20001A800E203A187B180024125F00241B5FA4
:104C30009A4203DA3B187A1812881A803B680022DD
:104C40009B5E9AB20E23FB181B88D3189BB21AB234
:104C50003B681A80C046BD4605B090BD002243089F
:104C60008B4274D303098B425FD3030A8B4244D334
:104C7000030B8B4228D3030C8B420DD3FF22090276
:104C800012BA030C8B4202D31212090265D0030B35
:104C90008B4219D300E0090AC30B8B4201D3CB032B
:104CA000C01A5241830B8B4201D38B03C01A52416D
:104CB000430B8B4201D34B03C01A5241030B8B426F
:104CC00001D30B03C01A5241C30A8B4201D3CB025A
:104CD000C01A5241830A8B4201D38B02C01A52413F
:104CE000430A8B4201D34B02C01A5241030A8B4242
:104CF00001D30B02C01A5241CDD2C3098B4201D35A
:104D0000CB01C01A524183098B4201D38B01C01AD7
:104D1000524143098B4201D34B01C01A524103094E
:104D20008B4201D30B01C01A5241C3088B4201D3FD
:104D3000CB00C01A524183088B4201D38B00C01AAA
:104D4000524143088B4201D34B00C01A5241411AD1
:104D500000D20146524110467047FFE701B50020DE
:104D600000F0F0F802BDC0460029F7D076E77047A2
:104D700003460B437FD4002243088B4274D30309BC
:104D80008B425FD3030A8B4244D3030B8B4228D35D
:104D9000030C8B420DD3FF22090212BA030C8B4283
:104DA00002D31212090265D0030B8B4219D300E023
:104DB000090AC30B8B4201D3CB03C01A5241830BA8
:104DC0008B4201D38B03C01A5241430B8B4201D358
:104DD0004B03C01A5241030B8B4201D30B03C01A81
:104DE0005241C30A8B4201D3CB02C01A5241830AFB
:104DF0008B4201D38B02C01A5241430A8B4201D32A
:104E00004B02C01A5241030A8B4201D30B02C01A53
:104E10005241CDD2C3098B4201D3CB01C01A5241BA
:104E200083098B4201D38B01C01A524143098B4243
:104E300001D34B01C01A524103098B4201D30B012C
:104E4000C01A5241C3088B4201D3CB00C01A524151
:104E500083088B4201D38B00C01A524143088B4216
:104E600001D34B00C01A5241411A00D201465241AF
:104E7000104670475DE0CA0F00D04942031000D3CE
:104E80004042534000229C4603098B422DD3030A23
:104E90008B4212D3FC22890112BA030A8B420CD333
:104EA000890192118B4208D3890192118B4204D35C
:104EB00089013AD0921100E08909C3098B4201D3DC
:104EC000CB01C01A524183098B4201D38B01C01A16
:104ED000524143098B4201D34B01C01A524103098D
:104EE0008B4201D30B01C01A5241C3088B4201D33C
:104EF000CB00C01A524183088B4201D38B00C01AE9
:104F00005241D9D243088B4201D34B00C01A5241BF
:104F1000411A00D20146634652415B10104601D34C
:104F20004042002B00D54942704763465B1000D3D6
:104F3000404201B5002000F005F802BD0029F8D07C
:104F400016E770477047C046F0B5CE46474680B575
:104F5000070099463B0C9C4613041B0C1D000E00D9
:104F600061460004140C000C45434B43604361430D
:104F7000C0182C0C20188C46834203D980235B0276
:104F80009846C444494679437243030C63442D0454
:104F90002D0CC918000440198918C0BCB946B04688
:104FA000F0BDC04610B5010000230022002000F033
:104FB00089F810BD70B5074D074C641BA41005D0CF
:104FC000013CA300EB589847002CF9D100F0FAF807
:104FD00070BDC046705900087459000870B50C4D7A
:104FE0000C4E761BB61005D0002408CD013498472E
:104FF000A642FAD100F0E0F8074D084E761BB61035
:1050000005D0002408CD01349847A642FAD170BDDE
:105010006859000868590008685900087059000864
:10502000F0B5C64600B50F2A41D903270D003E0052
:1050300005430C0003002E402F423DD11500103DCA
:105040002D09A8462D01AC46844427681D001F6029
:1050500067685F60A7689F60E7681034DF6010339F
:105060006545F2D145460F230C2401352D01491920
:1050700013404519144222D08C59AC5104369C1B64
:10508000032CF9D8043B9B0801339B00ED18C91889
:1050900003231A40561E002A06D00023CC5C1A00B7
:1050A000EC5401339642F9D180BCB846F0BD0500FE
:1050B000561E002AF1D1F7E70500561EEDE71A004B
:1050C000F6E7C046F0B5C64600B51F4C82B024686E
:1050D0000194A424019D64002D59002D2BD06C68EF
:1050E0001F2C2EDC002809D10020631C0234A400F0
:1050F0006B60615102B080BCB846F0BD8827A60045
:10510000AE19F2510137FF37BC460122AC44674665
:10511000A2403F68904617436246176084277F008D
:10512000F3510228E0D12B0040468D33FF331A683B
:1051300010431860D8E7019D019E4D35FF3535516C
:10514000CDE701204042D5E7645900080D48854667
:105150000D480E490E4A002302E0D458C4500433CF
:10516000C4188C42F9D30B4A0B4C002301E01360A6
:105170000432A242FBD3FFF797F8FFF72FFFFEF7A9
:1051800067F8FEE70010002000000020580500200E
:10519000745900085805002068070020FEE7000049
:1051A000034B10B5002B02D00248FFF7FBFE10BDE9
:1051B00000000000B54F0008F8B5C046F8BC08BCB8
:1051C0009E467047F8B5C046F8BC08BC9E4670477E
:1051D0000020EA21CA239E2567272329D32A752C7C
:1051E0000A2E902F07316F32C7330F3546366D3791
:1051F00082388639783A573B243CDE3C853D193E5F
:105200009A3E073F613FA63FD83FF63F0040F63F3A
:10521000D83FA63F613F073F9A3E193E853DDE3CA1
:10522000243C573B783A863982386D3746360F35FD
:10523000C7336F320731902F0A2E752CD32A2329BA
:1052400067279E25CA23EA2100200C1E0E1C081A7F
:10525000FA17E415C713A4117C0F4E0D1D0BE808B7
:10526000B10677043C020000C4FD89FB4FF918F732
:10527000E3F4B2F284F05CEE39EC1CEA06E8F8E5FF
:10528000F2E3F4E100E016DE36DC62DA99D8DDD62E
:105290002DD58BD3F6D170D0F9CE91CD39CCF1CAC2
:1052A000BAC993C87EC77AC688C5A9C4DCC322C35D
:1052B0007BC2E7C166C1F9C09FC05AC028C00AC0FE
:1052C00000C00AC028C05AC09FC0F9C066C1E7C16B
:1052D0007BC222C3DCC3A9C488C57AC67EC793C873
:1052E000BAC9F1CA39CC91CDF9CE70D0F6D18BD3F1
:1052F0002DD5DDD699D862DA36DC16DE00E0F4E191
:10530000F2E3F8E506E81CEA39EC5CEE84F0B2F270
:10531000E3F418F74FF989FBC4FD00003C02770461
:10532000B106E8081D0B4E0D7C0FA411C713E41540
:10533000FA17081A0E1C0C1E00206D3746360F3562
:10534000C7336F320731902F0A2E752CD32A2329A9
:1053500067279E25CA23EA2100200C1E0E1C081A6E
:10536000FA17E415C713A4117C0F4E0D1D0BE808A6
:10537000B10677043C020000C4FD89FB4FF918F721
:10538000E3F4B2F284F05CEE39EC1CEA06E8F8E5EE
:10539000F2E3F4E100E016DE36DC62DA99D8DDD61D
:1053A0002DD58BD3F6D170D0F9CE91CD39CCF1CAB1
:1053B000BAC993C87EC77AC688C5A9C4DCC322C34C
:1053C0007BC2E7C166C1F9C09FC05AC028C00AC0ED
:1053D00000C00AC028C05AC09FC0F9C066C1E7C15A
:1053E0007BC222C3DCC3A9C488C57AC67EC793C862
:1053F000BAC9F1CA39CC91CDF9CE70D0F6D18BD3E0
:105400002DD5DDD699D862DA36DC16DE00E0F4E17F
:10541000F2E3F8E506E81CEA39EC5CEE84F0B2F25F
:10542000E3F418F74FF989FBC4FD00003C02770450
:10543000B106E8081D0B4E0D7C0FA411C713E4152F
:10544000FA17081A0E1C0C1E0020EA21CA239E25FA
:1054500067272329D32A752C0A2E902F07316F3204
:10546000C7330F3546366D3782388639783A573B21
:10547000243CDE3C853D193E9A3E073F613FA63FF6
:10548000D83FF63F0040F63FD83FA63F613F073F79
:105490009A3E193E853DDE3C243C573B783A86399E
:1054A00082386D37DDCCBECAD2C81BC797C547C48A
:1054B00027C338C277C1E1C073C02CC007C001C088
:1054C00016C043C083C0D4C031C197C102C26EC2EE
:1054D000D8C23DC39BC3EFC336C470C49AC4B4C41E
:1054E000BCC4B4C49AC470C436C4EFC39BC33DC328
:1054F000D8C26EC202C297C131C1D4C083C043C0FA
:1055000016C001C007C02CC073C0E1C077C138C24B
:1055100027C347C497C51BC7D2C8BECADDCC30CF8E
:10552000B7D16ED455D769DAA9DD0FE19AE445E821
:105530000DECEDEFE0F3E3F7EFFB000011041D08C5
:10554000200C1310F313BB17661BF11E572297256F
:10555000AB28922B492ED030233342352E37E538F5
:10556000693AB93BD93CC83D893E1F3F8D3FD43F86
:10557000F93FFF3FEA3FBD3F7D3F2C3FCF3E693EB5
:10558000FE3D923D283DC33C653C113CCA3B903BEF
:10559000663B4C3B443B4C3B663B903BCA3B113C1F
:1055A000653CC33C283D923DFE3D693ECF3E2C3FCD
:1055B0007D3FBD3FEA3FFF3FF93FD43F8D3F1F3F57
:1055C000893EC83DD93CB93B693AE5382E3742356A
:1055D0002333D030492E922BAB2897255722F11E2A
:1055E000661BBB17F3131310200C1D0811040000D9
:1055F000EFFBE3F7E0F3EDEF0DEC45E89AE40FE1A4
:10560000A9DD69DA55D76ED4B7D130CFDDCC443BB4
:105610004C3B663B903BCA3B113C653CC33C283D40
:10562000923DFE3D693ECF3E2C3F7D3FBD3FEA3F70
:10563000FF3FF93FD43F8D3F1F3F893EC83DD93CD6
:10564000B93B693AE5382E3742352333D030492EFD
:10565000922BAB2897255722F11E661BBB17F3131D
:105660001310200C1D0811040000EFFBE3F7E0F31A
:10567000EDEF0DEC45E89AE40FE1A9DD69DA55D7C5
:105680006ED4B7D130CFDDCCBECAD2C81BC797C548
:1056900047C427C338C277C1E1C073C02CC007C05C
:1056A00001C016C043C083C0D4C031C197C102C27B
:1056B0006EC2D8C23DC39BC3EFC336C470C49AC484
:1056C000B4C4BCC4B4C49AC470C436C4EFC39BC3CE
:1056D0003DC3D8C26EC202C297C131C1D4C083C01B
:1056E00043C016C001C007C02CC073C0E1C077C161
:1056F00038C227C347C497C51BC7D2C8BECADDCCB2
:1057000030CFB7D16ED455D769DAA9DD0FE19AE46D
:1057100045E80DECEDEFE0F3E3F7EFFB00001104DB
:105720001D08200C1310F313BB17661BF11E572224
:105730009725AB28922B492ED030233342352E3774
:10574000E538693AB93BD93CC83D893E1F3F8D3F9A
:10575000D43FF93FFF3FEA3FBD3F7D3F2C3FCF3E67
:10576000693EFE3D923D283DC33C653C113CCA3B31
:10577000903B663B4C3B443BDDCC30CFB7D16ED445
:1057800055D769DAA9DD0FE19AE445E80DECEDEFB4
:10579000E0F3E3F7EFFB000011041D08200C1310E9
:1057A000F313BB17661BF11E57229725AB28922BCC
:1057B000492ED030233342352E37E538693AB93B8C
:1057C000D93CC83D893E1F3F8D3FD43FF93FFF3F45
:1057D000EA3FBD3F7D3F2C3FCF3E693EFE3D923DBF
:1057E000283DC33C653C113CCA3B903B663B4C3B6F
:1057F000443B4C3B663B903BCA3B113C653CC33C45
:10580000283D923DFE3D693ECF3E2C3F7D3FBD3F52
:10581000EA3FFF3FF93FD43F8D3F1F3F893EC83DE0
:10582000D93CB93B693AE5382E3742352333D0307D
:10583000492E922BAB2897255722F11E661BBB17CA
:10584000F3131310200C1D0811040000EFFBE3F705
:10585000E0F3EDEF0DEC45E89AE40FE1A9DD69DA3C
:1058600055D76ED4B7D130CFDDCCBECAD2C81BC796
:1058700097C547C427C338C277C1E1C073C02CC0E5
:1058800007C001C016C043C083C0D4C031C197C196
:1058900002C26EC2D8C23DC39BC3EFC336C470C43C
:1058A0009AC4B4C4BCC4B4C49AC470C436C4EFC3EC
:1058B0009BC33DC3D8C26EC202C297C131C1D4C01E
:1058C00083C043C016C001C007C02CC073C0E1C074
:1058D00077C138C227C347C497C51BC7D2C8BECA41
:1058E000DDCCFFFFF3FFCCFF8AFF2EFFB7FE26FEC5
:1058F0007AFDB3FCD1FBD3FABAF984F831F7C1F5DC
:1059000034F488F2BEF0D4EECAEC9EEA51E8E0E549
:105910004BE391E0B0DDA6DA73D713D485D0C6CCC3
:10592000D5C8ADC44BC0ABBBC8B69EB125AC55A65F
:1059300025A08B997692D58A8E8281797C6F376487
:1059400033578047AE32FF0100FF000100FF010125
:10595000FF000100FF0001FF000200010403050039
:08596000780600203001002050
:08596800A151000835010008FF
:045970000901000821
:1059740000300000280014000000D007AB29802567
:105984000005403840383C38323820380738E7378B
:10599400BF3791375B371D37D8368B363736DA3514
:1059A40075350835933415348E33FD326432C03185
:1059B40012315930952FC52EE92D002D092C032BBA
:1059C400ED29C6288C273E26D9245B23C021042038
:1059D400211E101CC5192F1732149510CB0B000073
:1059E400000040018002C003000540068007C00893
:1059F400000A400B800CC00D000F40108011C01233
:105A0400001440158016C0170019401A801BC01CD2
:105A1400001E401F8020C021002340248025C02672
:105A240000284029802AC02B002D402E802FC03012
:105A3400003240338034C035003740389001E02EC6
:105A4400A00FF000E0010019C012803E3000802554
:105A5400803EE02E00033303CD04E112B81EE102C0
:105A6400CD04E102FB00F6000F020000000100007B
:105A7400E00100000D04000000000D0464000004B7
:105A840000A24A0400000000000318FC0000E80320
:105A940000000101A000000030010020000000000F
:105AA400000000001C04002084040020EC040020FA
:105AB40000000000000000000000000000000000E2
:105AC40000000000000000000000000000000000D2
